:03000000020006F5
:03005F0002000399
:03000300020138BF
:10006200AC82AD83AEF0FFC004C005C006C00790ED
:10007200000075F07A7444120324AC82AD83AEF0B2
:10008200FFE58124FCF5817448C0E074E1C0E074AE
:100092008AC0E0743FC0E08C828D838EF0EF120440
:1000A200B0AC82AD83AEF0FFE58124FCF5818C8299
:1000B2008D838EF0EF120428020265AC82AD83AE0E
:1000C200F0FFC004C005C006C00790000075F07ABA
:1000D2007444120324AC82AD83AEF0FFE58124FCAC
:1000E200F581C004C005C006C00790000075F07A13
:1000F2007444120324AC82AD83AEF0FFE58124FC8C
:10010200F5817448C0E074E1C0E0748AC0E0743FD5
:10011200C0E08C828D838EF0EF1204B0AC82AD838E
:10012200AEF0FFE58124FCF5818C828D838EF0EFA9
:100132001204280202657C007D007E007F007508A3
:1001420014E4F509F50AF50B8C828D838EF0EFC06D
:1001520007C006C005C0041202A1A882A983E82430
:10016200BAF582E93405F583E493F58090103A7587
:10017200F00EE4120265D004D005D006D0070CBC04
:0D01820000090DBD00050EBE00B40F80B1D8
:1005BA003F065B4F666D7D077F6F777C395E797189
:0405CA00763840003F
:10018F00AC82AD83AEF0FFC004C005C006C00790BF
:10019F00000075F07A7444120324AC82AD83AEF084
:1001AF00FFE58124FCF5817448C0E074E1C0E07480
:1001BF008AC0E0743FC0E08C828D838EF0EF120412
:1001CF00B0AC82AD83AEF0FFE58124FCF5818C826B
:1001DF008D838EF0EF120428020265AC82AD83AEE0
:1001EF00F0FFC004C005C006C00790000075F07A8C
:1001FF007444120324AC82AD83AEF0FFE58124FC7E
:10020F00F581C004C005C006C00790000075F07AE4
:10021F007444120324AC82AD83AEF0FFE58124FC5D
:10022F00F5817448C0E074E1C0E0748AC0E0743FA7
:10023F00C0E08C828D838EF0EF1204B0AC82AD8360
:10024F00AEF0FFE58124FCF5818C828D838EF0EF7B
:10025F00120428020265AC82AD83AEF0FF5389F021
:10026F004389018C028D0374FFC39AFA74FF9BFBC1
:10027F008A8A8B8CC28DD28C308DFDEE4F601275B9
:10028F008A00758C00C28D308DFD1EBEFF011F8050
:10029F00EA22F9E5084509450A450B60777800C35E
:1002AF0008E50B20E73BE50825E0F508E50933F500
:1002BF0009E50A33F50AE50B33F50BE5829508E5F9
:1002CF00839509E5F0950AE9950B50D4C3E50B1317
:1002DF00F50BE50A13F50AE50913F509E50813F51A
:1002EF0008E5829508FCE5839509FDE5F0950AFE82
:1002FF00E9950B4007F98EF08D838C82C3E50B13C4
:10030F00F50BE50A13F50AE50913F509E50813F5E9
:10031F0008D8CEE9221203C7BC0003020482EF60A3
:10032F00FA30D502B2D1E583B4FF03020498E58217
:10033F00B4FF03020498258340072482400B020474
:10034F00822483145003020498F582EA8DF0A4A846
:10035F00F0EA8EF0A428F8E435F0F9EB8DF0A4283C
:10036F00E935F0F9E433CA8FF0A429F9EA35F0FA48
:10037F00EBF88EF0A429F9EA35F0FAE433FBEC8DB3
:10038F00F0A429F9EA35F0FAE43BFBE88FF0A42A50
:10039F00FAEB35F0FBE433CCFD8EF0A42AFAEB3503
:1003AF00F0FBE43CFCED8FF0A42BFBEC35F0FC20D4
:1003BF00E7031203F5020461AA82AB83A2F733921B
:1003CF00D1F5826002D2F7ACF0E58124F9F8E6FDB1
:1003DF0008E6FE0886F008E6A2F73392D5F58360AB
:0603EF0002D2F7AFF0227C
:06003500E478FFF6D8FD9F
:1003F5007804EC7011E58224F8500AF582E4C9CA44
:10040500CBFCD8EF22EC7820058220E713D58201BA
:1004150022C3E933F9EA33FAEB33FBEC33FCD8EAD0
:030425001582221B
:100013007900E94400601B7A009005CE780175A051
:1000230000E493F2A308B8000205A0D9F4DAF2754C
:02003300A0FF2C
:100428007F9E12044F30D103020482C3EF9582509D
:100438000974FFF5F0F583F58222790012057389B6
:10044800828A838BF0EC22AA82AB83A2F73392D103
:09045800F5826002D2F7ACF0223B
:10003B007800E84400600A790175A000E4F309D860
:10004B00FC7800E84400600C7900900001E4F0A318
:04005B00D8FCD9FAFA
:10046100B98003EA13B34010EA2401FAE43BFBE448
:100471003CFC50047C800582BC000EBB000BBA0022
:1004810008E4F5F0F583F58222A2D1E582138CF020
:1004910092F78B838A8222E4F583F58275F080F4EA
:1004A100A2D11322E4F583F58275F0C0747F221284
:1004B10003C730D502B2D1BF0009BC00030204A5B5
:1004C100020498BC0003020482E583B4FF0BE582B9
:1004D100B4FF030204A5020482E582B4FF0302040F
:1004E10098C395835007247F400B02048224801413
:1004F1005003020498F582C3ED9AEE9BEF9C4011E4
:100501001582C3EA33F9EB33FAEC33FBE433FC80B5
:1005110005E4CCCBCAF9C08275F019C3E99DEA9E06
:10052100EB9FEC9400D5F002802D400EE99DF9EA95
:100531009EFAEB9FFBEC9400FCC3B3E833F8E58231
:1005410033F582E58333F583C3E933F9EA33FAEB13
:1005510033FBEC33FC80C4B3E4F938FAE43582FBB5
:10056100E43583FCD082500405827C801203F502BD
:0205710004790B
:0D00060075810B1205B6E582600302000350
:100573006040F82582500274FFF582E824F8501E8B
:10058300CCCBCAF9E4CC24F85014CBCAF9E4CB247D
:10059300F8500BCAF9E4CA24F8500379002224085E
:1005A3006010F8C3EC13FCEB13FBEA13FAE913F93D
:0705B300D8F122758200223D
:00000001FF
