:03000000020006F5
:03005F0002000399
:0300030002006296
:100062007C007D007E007F00750814E4F509F50A26
:10007200F50B8C828D838EF0EFC007C006C005C0E1
:1000820004120140A882A983E8242CF582E93402F3
:10009200F583E493F58090103B75F00EE41200B9FD
:1000A200D004D005D006D0070CBC00090DBD000558
:0700B2000EBE00B40F80B187
:10022C003F065B4F666D7D077F6F777C395E79711A
:04023C0076384000D0
:1000B900AC82AD83AEF0FFC2A97508FF7509FFE4F4
:1000C900F50AF50B8C828D838EF0EFC007C006C050
:1000D90005C0041201C3A882A983D004D005D006A3
:1000E900D0077508FF7509FFE4F50AF50B8C828DB9
:1000F900838EF0EFC001C000120140AC82AD83D005
:1001090000D00174FFC39CFC74FF9DFD7589018CAF
:100119008A8D8CC28DD28C308DFD88068907EE4F71
:100129006012758A00758C00C28D308DFD1EBEFF70
:10013900011F80EAD2A922F9E5084509450A450BBC
:1001490060777800C308E50B20E73BE50825E0F573
:1001590008E50933F509E50A33F50AE50B33F50B2B
:10016900E5829508E5839509E5F0950AE9950B502F
:10017900D4C3E50B13F50BE50A13F50AE50913F5E5
:1001890009E50813F508E5829508FCE5839509FD5D
:10019900E5F0950AFEE9950B4007F98EF08D838C01
:1001A90082C3E50B13F50BE50A13F50AE50913F507
:1001B90009E50813F508D8CEE922FB7A20E4FCFD0D
:1001C900FEFFE5822582F582E58333F583E5F03389
:1001D900F5F0EB33FB4017DAE98042E5822582F539
:1001E90082E58333F583E5F033F5F0EB33FBEC334C
:1001F900FCED33FDEE33FEEF33FFEC9508ED950989
:10020900EE950AEF950B4013EC9508FCED9509FD69
:0F021900EE950AFEEF950BFF438201DABEEB2252
:06003500E478FFF6D8FD9F
:100013007900E94400601B7A00900240780175A0E2
:1000230000E493F2A308B8000205A0D9F4DAF2754C
:02003300A0FF2C
:10003B007800E84400600A790175A000E4F309D860
:10004B00FC7800E84400600C7900900001E4F0A318
:04005B00D8FCD9FAFA
:0D00060075810B120228E5826003020003E1
:0402280075820022B9
:00000001FF
