:03000000020006F5
:03005F0002000399
:0300030002006296
:100062007590FE90FFFFE4F5F012007C7590FF9012
:10007200FFFFE4F5F012007C80E6AC82AD83AEF0C7
:10008200FFC2A97508FF7509FFE4F50AF50B8C821A
:100092008D838EF0EFC007C006C005C00412018632
:1000A200A882A983D004D005D006D0077508FF75B1
:1000B20009FFE4F50AF50B8C828D838EF0EFC00107
:1000C200C000120103AC82AD83D000D00174FFC323
:1000D2009CFC74FF9DFD7589018C8A8D8CC28DD22A
:1000E2008C308DFD88068907EE4F6012758A007587
:1000F2008C00C28D308DFD1EBEFF011F80EAD2A989
:1001020022F9E5084509450A450B60777800C308DE
:10011200E50B20E73BE50825E0F508E50933F5099D
:10012200E50A33F50AE50B33F50BE5829508E5831D
:100132009509E5F0950AE9950B50D4C3E50B13F543
:100142000BE50A13F50AE50913F509E50813F508A5
:10015200E5829508FCE5839509FDE5F0950AFEE93F
:10016200950B4007F98EF08D838C82C3E50B13F556
:100172000BE50A13F50AE50913F509E50813F50875
:10018200D8CEE922FB7A20E4FCFDFEFFE58225823F
:10019200F582E58333F583E5F033F5F0EB33FB408D
:1001A20017DAE98042E5822582F582E58333F58319
:1001B200E5F033F5F0EB33FBEC33FCED33FDEE33DE
:1001C200FEEF33FFEC9508ED9509EE950AEF950BDE
:1001D2004013EC9508FCED9509FDEE950AFEEF95AE
:0901E2000BFF438201DABEEB229F
:06003500E478FFF6D8FD9F
:100013007900E94400601B7A009001EF780175A034
:1000230000E493F2A308B8000205A0D9F4DAF2754C
:02003300A0FF2C
:10003B007800E84400600A790175A000E4F309D860
:10004B00FC7800E84400600C7900900001E4F0A318
:04005B00D8FCD9FAFA
:0D00060075810B1201EBE58260030200031F
:0401EB0075820022F7
:00000001FF
