:04000000020029329F
:01000B0032C2
:0100130032BA
:01001B0032B2
:0300230002018A4D
:0300820002002653
:030026000201953F
:10008500AC82AD83AEF0FFC004C005C006C00790CA
:10009500000075F07A74441202C4AC82AD83AEF0F0
:1000A500FFE58124FCF5817448C0E074E1C0E0748B
:1000B5008AC0E0743FC0E08C828D838EF0EF12051C
:1000C50007AC82AD83AEF0FFE58124FCF5818C821F
:1000D5008D838EF0EF12042D020288AC82AD83AEC3
:1000E500F0FFC004C005C006C00790000075F07A97
:1000F50074441202C4AC82AD83AEF0FFE58124FCEA
:10010500F581C004C005C006C00790000075F07AEF
:1001150074441202C4AC82AD83AEF0FFE58124FCC9
:10012500F5817448C0E074E1C0E0748AC0E0743FB2
:10013500C0E08C828D838EF0EF120507AC82AD8313
:10014500AEF0FFE58124FCF5818C828D838EF0EF86
:1001550012042D020288AE82AF8375985053890F21
:100165004389208E088F09750A00750B00907080F1
:10017500E4F5F0120466AC82C3E49CFC8C8D8C8B98
:10018500C2ABD28E221098028000109902800032F4
:10019500D2AF9012C012015B7F008F9990103A7513
:1001A500F00EE4C007120288D0070F80EDAC82ADD7
:1001B50083AEF0FFC004C005C006C00790000075FF
:1001C500F07A74441202C4AC82AD83AEF0FFE581CF
:1001D50024FCF5817448C0E074E1C0E0748AC0E095
:1001E500743FC0E08C828D838EF0EF120507AC82E0
:1001F500AD83AEF0FFE58124FCF5818C828D838E85
:10020500F0EF12042D020288AC82AD83AEF0FFC080
:1002150004C005C006C00790000075F07A7444124A
:1002250002C4AC82AD83AEF0FFE58124FCF581C04C
:1002350004C005C006C00790000075F07A7444122A
:1002450002C4AC82AD83AEF0FFE58124FCF5817478
:1002550048C0E074E1C0E0748AC0E0743FC0E08C3F
:10026500828D838EF0EF120507AC82AD83AEF0FF71
:10027500E58124FCF5818C828D838EF0EF12042DAF
:10028500020288AC82AD83AEF0FF5389F043890149
:100295008C028D0374FFC39AFA74FF9BFB8A8A8BC9
:1002A5008CC28DD28C308DFDEE4F6012758A007533
:1002B5008C00C28D308DFD1EBEFF011F80EA22120B
:1002C50003CCBC00030204D9EF60FA30D502B2D1E9
:1002D500E583B4FF030204EFE582B4FF030204EFF4
:1002E500258340072482400B0204D924831450033C
:1002F5000204EFF582EA8DF0A4A8F0EA8EF0A428B6
:10030500F8E435F0F9EB8DF0A428E935F0F9E4339C
:10031500CA8FF0A429F9EA35F0FAEBF88EF0A42992
:10032500F9EA35F0FAE433FBEC8DF0A429F9EA3566
:10033500F0FAE43BFBE88FF0A42AFAEB35F0FBE496
:1003450033CCFD8EF0A42AFAEB35F0FBE43CFCED52
:100355008FF0A42BFBEC35F0FC20E7031203FA0227
:1003650004B8FB7A20E4FCFDFEFFE5822582F582D8
:10037500E58333F583E5F033F5F0EB33FB4017DA2E
:10038500E98042E5822582F582E58333F583E5F050
:1003950033F5F0EB33FBEC33FCED33FDEE33FEEFE1
:1003A50033FFEC9508ED9509EE950AEF950B401393
:1003B500EC9508FCED9509FDEE950AFEEF950BFF12
:1003C500438201DABEEB22AA82AB83A2F73392D134
:1003D500F5826002D2F7ACF0E58124F9F8E6FD0874
:1003E500E6FE0886F008E6A2F73392D5F5836002AB
:0503F500D2F7AFF02279
:06005800E478FFF6D8FD7C
:1003FA007804EC7011E58224F8500AF582E4C9CA3F
:10040A00CBFCD8EF22EC7820058220E713D58201B5
:10041A0022C3E933F9EA33FAEB33FBEC33FCD8EACB
:03042A0015822216
:100036007900E94400601B7A00900611780175A0EA
:1000460000E493F2A308B8000205A0D9F4DAF27529
:02005600A0FF09
:10042D007F9E12045430D1030204D9C3EF9582503C
:10043D000974FFF5F0F583F5822279001205CA895A
:10044D00828A838BF0EC22AA82AB83A2F73392D1FE
:09045D00F5826002D2F7ACF02236
:10005E007800E84400600A790175A000E4F309D83D
:10006E00FC7800E84400600C7900900001E4F0A3F5
:04007E00D8FCD9FAD7
:10046600FBC2D530E715D2D5E4C39582F582E49573
:1004760083F583E495F0F5F0E49BFBE50B30E71795
:10048600B2D5E4C39508F508E49509F509E4950A9B
:10049600F50AE4950BF50BEB12036730D513FBE475
:1004A600C39582F582E49583F583E495F0F5F0E44F
:1004B6009B22B98003EA13B34010EA2401FAE43B15
:1004C600FBE43CFC50047C800582BC000EBB000BA8
:1004D600BA0008E4F5F0F583F58222A2D1E582138D
:1004E6008CF092F78B838A8222E4F583F58275F08D
:1004F60080F4A2D11322E4F583F58275F0C0747FEF
:10050600221203CC30D502B2D1BF0009BC000302CF
:1005160004FC0204EFBC00030204D9E583B4FF0B1C
:10052600E582B4FF030204FC0204D9E582B4FF03AA
:100536000204EFC395835007247F400B0204D9249D
:10054600801450030204EFF582C3ED9AEE9BEF9CF4
:1005560040111582C3EA33F9EB33FAEC33FBE4338B
:10056600FC8005E4CCCBCAF9C08275F019C3E99DBD
:10057600EA9EEB9FEC9400D5F002802D400EE99D9B
:10058600F9EA9EFAEB9FFBEC9400FCC3B3E833F860
:10059600E58233F582E58333F583C3E933F9EA333C
:1005A600FAEB33FBEC33FC80C4B3E4F938FAE435F8
:1005B60082FBE43583FCD082500405827C801203E2
:0405C600FA0204D061
:0D00290075810B12060DE5826003020026B2
:1005CA006040F82582500274FFF582E824F8501E34
:1005DA00CCCBCAF9E4CC24F85014CBCAF9E4CB2426
:1005EA00F8500BCAF9E4CA24F85003790022240807
:1005FA006010F8C3EC13FCEB13FBEA13FAE913F9E6
:07060A00D8F12275820022E5
:00000001FF
