:0400000002002132A7
:01000B0032C2
:0100130032BA
:03001B0002009E42
:06007A0075080002001EE3
:03001E000200F7E6
:10008000AE82AF83D2AFD2AB53890F43891074FFD6
:10009000C39EFE74FF9FFF8E8B8F8DD28E22C02059
:1000A000C0E0C0F0C082C083C007C006C005C00465
:1000B000C003C002C001C000C0D075D00074075595
:1000C00008FF8FF005F07401800225E0D5F0FBF405
:1000D000F590050890FFFF120080D0D0D000D0012D
:1000E000D002D003D004D005D006D007D083D08270
:0F00F000D0F0D0E0D0203290FFFF12008080FED1
:06005000E478FFF6D8FD84
:10002E007900E94400601B7A00900103780175A005
:10003E0000E493F2A308B8000205A0D9F4DAF27531
:02004E00A0FF11
:100056007800E84400600A790175A000E4F309D845
:10006600FC7800E84400600C7900900001E4F0A3FD
:04007600D8FCD9FADF
:0D0021007581201200FFE582600302001EC1
:0400FF0075820022E4
:00000001FF
