:03000000020006F5
:03005F0002000399
:0300030002006296
:100062007F00BF0800500EEF2408F9EF90053D9382
:0A007200FEF70F80ED12015280FB33
:10053D003F065B4F666D7D077F6F777C395E797106
:03054D00763840BD
:10007C00AC82AD83AEF0FFC004C005C006C00790D3
:10008C00000075F07A74441202A7AC82AD83AEF016
:10009C00FFE58124FCF5817448C0E074E1C0E07494
:1000AC008AC0E0743FC0E08C828D838EF0EF120426
:1000BC0033AC82AD83AEF0FFE58124FCF5818C82FC
:1000CC008D838EF0EF1203AB02026BAC82AD83AE6C
:1000DC00F0FFC004C005C006C00790000075F07AA0
:1000EC0074441202A7AC82AD83AEF0FFE58124FC10
:1000FC00F581C004C005C006C00790000075F07AF9
:10010C0074441202A7AC82AD83AEF0FFE58124FCEF
:10011C00F5817448C0E074E1C0E0748AC0E0743FBB
:10012C00C0E08C828D838EF0EF120433AC82AD83F1
:10013C00AEF0FFE58124FCF5818C828D838EF0EF8F
:10014C001203AB02026B7F00BF0800503BEF240888
:10015C00F9E7FE6030D2A7C2A68F057407C39DF5E0
:10016C00F005F07401800225E0D5F0FBF4F580D2A7
:10017C00A6C2A78E80900733E4F5F0C00712026B7D
:10018C00D0077580000F80C022AC82AD83AEF0FF2B
:10019C00C004C005C006C00790000075F07A744416
:1001AC001202A7AC82AD83AEF0FFE58124FCF58191
:1001BC007448C0E074E1C0E0748AC0E0743FC0E0F1
:1001CC008C828D838EF0EF120433AC82AD83AEF053
:1001DC00FFE58124FCF5818C828D838EF0EF120378
:1001EC00AB02026BAC82AD83AEF0FFC004C005C0A5
:1001FC0006C00790000075F07A74441202A7AC8216
:10020C00AD83AEF0FFE58124FCF581C004C005C0D0
:10021C0006C00790000075F07A74441202A7AC82F5
:10022C00AD83AEF0FFE58124FCF5817448C0E07429
:10023C00E1C0E0748AC0E0743FC0E08C828D838E94
:10024C00F0EF120433AC82AD83AEF0FFE58124FCF9
:10025C00F5818C828D838EF0EF1203AB02026BACB6
:10026C0082AD83AEF0FF5389F04389018C028D037C
:10027C0074FFC39AFA74FF9BFB8A8A8B8CC28DD253
:10028C008C308DFDEE4F6012758A00758C00C28D1E
:10029C00308DFD1EBEFF011F80EA2212034ABC00F6
:1002AC0003020405EF60FA30D502B2D1E583B4FF46
:1002BC000302041BE582B4FF0302041B25834007E1
:1002CC002482400B020405248314500302041BF502
:1002DC0082EA8DF0A4A8F0EA8EF0A428F8E435F0B8
:1002EC00F9EB8DF0A428E935F0F9E433CA8FF0A4CA
:1002FC0029F9EA35F0FAEBF88EF0A429F9EA35F091
:10030C00FAE433FBEC8DF0A429F9EA35F0FAE43B7E
:10031C00FBE88FF0A42AFAEB35F0FBE433CCFD8E2E
:10032C00F0A42AFAEB35F0FBE43CFCED8FF0A42BA7
:10033C00FBEC35F0FC20E7031203780203E4AA82FD
:10034C00AB83A2F73392D1F5826002D2F7ACF0E521
:10035C008124F9F8E6FD08E6FE0886F008E6A2F727
:0C036C003392D5F5836002D2F7AFF02287
:06003500E478FFF6D8FD9F
:100378007804EC7011E58224F8500AF582E4C9CAC1
:10038800CBFCD8EF22EC7820058220E713D5820138
:1003980022C3E933F9EA33FAEB33FBEC33FCD8EA4E
:0303A80015822299
:100013007900E94400601B7A00900550780175A0CF
:1000230000E493F2A308B8000205A0D9F4DAF2754C
:02003300A0FF2C
:1003AB007F9E1203D230D103020405C3EF95825016
:1003BB000974FFF5F0F583F5822279001204F689B2
:1003CB00828A838BF0EC22AA82AB83A2F73392D181
:0903DB00F5826002D2F7ACF022B9
:10003B007800E84400600A790175A000E4F309D860
:10004B00FC7800E84400600C7900900001E4F0A318
:04005B00D8FCD9FAFA
:1003E400B98003EA13B34010EA2401FAE43BFBE4C6
:1003F4003CFC50047C800582BC000EBB000BBA00A0
:1004040008E4F5F0F583F58222A2D1E582138CF09D
:1004140092F78B838A8222E4F583F58275F080F467
:10042400A2D11322E4F583F58275F0C0747F221201
:10043400034A30D502B2D1BF0009BC00030204282C
:1004440002041BBC0003020405E583B4FF0BE58230
:10045400B4FF03020428020405E582B4FF03020486
:100464001BC395835007247F400B0204052480148A
:10047400500302041BF582C3ED9AEE9BEF9C4011DE
:100484001582C3EA33F9EB33FAEC33FBE433FC8033
:1004940005E4CCCBCAF9C08275F019C3E99DEA9E84
:1004A400EB9FEC9400D5F002802D400EE99DF9EA13
:1004B4009EFAEB9FFBEC9400FCC3B3E833F8E582AF
:1004C40033F582E58333F583C3E933F9EA33FAEB91
:1004D40033FBEC33FC80C4B3E4F938FAE43582FB33
:1004E400E43583FCD082500405827C8012037802B8
:0204F40003FC07
:0D00060075810F120539E5826003020003C9
:1004F6006040F82582500274FFF582E824F8501E09
:10050600CCCBCAF9E4CC24F85014CBCAF9E4CB24FA
:10051600F8500BCAF9E4CA24F850037900222408DB
:100526006010F8C3EC13FCEB13FBEA13FAE913F9BA
:07053600D8F12275820022BA
:00000001FF
