:03000000020006F5
:03005F0002000399
:0300030002006296
:100062007E007F00C3EE9410EF9400502C740F5E5C
:100072007D002435F582ED3404F583E493F5809018
:10008200000075F080743FC007C00612009CD006C5
:0A009200D0070EBE00CE0F80CB2277
:10043500C0F9A4B0999282F880908883C6A1868E6F
:10009C00AC82AD83AEF0FF74B4C0E074A2C0E07467
:1000AC0091C0E07435C0E08C828D838EF0EF12022B
:1000BC00CAAC82AD83AEF0FFE58124FCF5818C8265
:1000CC008D838EF0EF120242AC82AD83AEF0FF75E1
:1000DC0008FF7509FFE4F50AF50B8C828D838EF011
:1000EC00EFC007C006C005C00412015AA882A9833C
:1000FC00D004D005D006D00774FFC398F874FF99CC
:10010C00F97508FF7509FFE4F50AF50B8C828D83F0
:10011C008EF0EFC001C0001201DDAC82AD83D000C7
:10012C00D001758901888A898CC28DD28C308DFD65
:10013C007E007F00C3EE9CEF9D5012758A00758C7B
:10014C0000C28D308DFD0EBE00EA0F80E722F9E56E
:10015C00084509450A450B60777800C308E50B2074
:10016C00E73BE50825E0F508E50933F509E50A3331
:10017C00F50AE50B33F50BE5829508E5839509E562
:10018C00F0950AE9950B50D4C3E50B13F50BE50A72
:10019C0013F50AE50913F509E50813F508E5829549
:1001AC0008FCE5839509FDE5F0950AFEE9950B4001
:1001BC0007F98EF08D838C82C3E50B13F50BE50AE2
:1001CC0013F50AE50913F509E50813F508D8CEE986
:1001DC0022FB7A20E4FCFDFEFFE5822582F582E518
:1001EC008333F583E5F033F5F0EB33FB4017DAE9B5
:1001FC008042E5822582F582E58333F583E5F03391
:10020C00F5F0EB33FBEC33FCED33FDEE33FEEF336B
:10021C00FFEC9508ED9509EE950AEF950B4013EC64
:10022C009508FCED9509FDEE950AFEEF950BFF4345
:06023C008201DABEEB2294
:06003500E478FFF6D8FD9F
:100013007900E94400601B7A00900445780175A0DB
:1000230000E493F2A308B8000205A0D9F4DAF2754C
:02003300A0FF2C
:100242007F9E12026930D10302029CC3EF95825055
:100252000974FFF5F0F583F5822279001203BB8958
:10026200828A838BF0EC22AA82AB83A2F73392D1EB
:09027200F5826002D2F7ACF02223
:10003B007800E84400600A790175A000E4F309D860
:10004B00FC7800E84400600C7900900001E4F0A318
:04005B00D8FCD9FAFA
:10027B00B98003EA13B34010EA2401FAE43BFBE430
:10028B003CFC50047C800582BC000EBB000BBA000A
:10029B0008E4F5F0F583F58222A2D1E582138CF008
:1002AB0092F78B838A8222E4F583F58275F080F4D2
:1002BB00A2D11322E4F583F58275F0C0747F22126C
:1002CB00038D30D502B2D1BF0009BC00030202BFBF
:1002DB000202B2BC000302029CE583B4FF0BE58271
:1002EB00B4FF030202BF02029CE582B4FF030202C9
:1002FB00B2C395835007247F400B02029C248014C9
:10030B0050030202B2F582C3ED9AEE9BEF9C4011B3
:10031B001582C3EA33F9EB33FAEC33FBE433FC809D
:10032B0005E4CCCBCAF9C08275F019C3E99DEA9EEE
:10033B00EB9FEC9400D5F002802D400EE99DF9EA7D
:10034B009EFAEB9FFBEC9400FCC3B3E833F8E58219
:10035B0033F582E58333F583C3E933F9EA33FAEBFB
:10036B0033FBEC33FC80C4B3E4F938FAE43582FB9D
:10037B00E43583FCD082500405827C801203FE029C
:02038B000293DB
:0D00060075810B120431E5826003020003D6
:10038D00AA82AB83A2F73392D1F5826002D2F7AC89
:10039D00F0E58124F9F8E6FD08E6FE0886F008E6AA
:1003AD00A2F73392D5F5836002D2F7AFF022604009
:1003BD00F82582500274FFF582E824F8501ECCCB4C
:1003CD00CAF9E4CC24F85014CBCAF9E4CB24F85084
:1003DD000BCAF9E4CA24F8500379002224086010EE
:1003ED00F8C3EC13FCEB13FBEA13FAE913F9D8F19C
:1003FD00227804EC7011E58224F8500AF582E4C9E4
:10040D00CACBFCD8EF22EC7820058220E713D582E9
:10041D000122C3E933F9EA33FAEB33FBEC33FCD8B1
:08042D00EA158222758200220B
:00000001FF
