:03000000020006F5
:03005F0002000399
:0300030002006296
:100062007E007F007508147509008E828F83C00799
:10007200C00612027EAC82AD83EC2485F582ED349B
:1000820004F583E493F58090000075F080743F12CC
:0D009200009FD006D0070EBE00CA0F80C729
:100485003F065B4F666D7D077F6F777C395E7971BF
:040495007638400075
:10009F00AC82AD83AEF0FF74B4C0E074A2C0E07464
:1000AF0091C0E07435C0E08C828D838EF0EF120327
:1000BF001AAC82AD83AEF0FFE58124FCF5818C8212
:1000CF008D838EF0EF120245AC82AD83AEF0FF75DB
:1000DF0008FF7509FFE4F50AF50B8C828D838EF00E
:1000EF00EFC007C006C005C00412015DA882A98336
:1000FF00D004D005D006D00774FFC398F874FF99C9
:10010F00F97508FF7509FFE4F50AF50B8C828D83ED
:10011F008EF0EFC001C0001201E0AC82AD83D000C1
:10012F00D001758901888A898CC28DD28C308DFD62
:10013F007E007F00C3EE9CEF9D5012758A00758C78
:10014F0000C28D308DFD0EBE00EA0F80E722F9E56B
:10015F00084509450A450B60777800C308E50B2071
:10016F00E73BE50825E0F508E50933F509E50A332E
:10017F00F50AE50B33F50BE5829508E5839509E55F
:10018F00F0950AE9950B50D4C3E50B13F50BE50A6F
:10019F0013F50AE50913F509E50813F508E5829546
:1001AF0008FCE5839509FDE5F0950AFEE9950B40FE
:1001BF0007F98EF08D838C82C3E50B13F50BE50ADF
:1001CF0013F50AE50913F509E50813F508D8CEE983
:1001DF0022FB7A20E4FCFDFEFFE5822582F582E515
:1001EF008333F583E5F033F5F0EB33FB4017DAE9B2
:1001FF008042E5822582F582E58333F583E5F0338E
:10020F00F5F0EB33FBEC33FCED33FDEE33FEEF3368
:10021F00FFEC9508ED9509EE950AEF950B4013EC61
:10022F009508FCED9509FDEE950AFEEF950BFF4342
:06023F008201DABEEB2291
:06003500E478FFF6D8FD9F
:100013007900E94400601B7A00900499780175A087
:1000230000E493F2A308B8000205A0D9F4DAF2754C
:02003300A0FF2C
:100245007F9E12026C30D1030202ECC3EF958250FF
:100255000974FFF5F0F583F58222790012040B8904
:10026500828A838BF0EC22AA82AB83A2F73392D1E8
:10027500F5826002D2F7ACF022E508450960467ABE
:1002850001E50825E0F508E509334012F509E582A1
:100295009508E583950940030A80E6C3E50913F54A
:1002A50009E50813F508C3E5829508F5F0E583959A
:1002B500094005F58385F082C3E50913F509E508CD
:0602C50013F508DAE12246
:10003B007800E84400600A790175A000E4F309D860
:10004B00FC7800E84400600C7900900001E4F0A318
:04005B00D8FCD9FAFA
:1002CB00B98003EA13B34010EA2401FAE43BFBE4E0
:1002DB003CFC50047C800582BC000EBB000BBA00BA
:1002EB0008E4F5F0F583F58222A2D1E582138CF0B8
:1002FB0092F78B838A8222E4F583F58275F080F482
:10030B00A2D11322E4F583F58275F0C0747F22121B
:10031B0003DD30D502B2D1BF0009BC000302030FCD
:10032B00020302BC00030202ECE583B4FF0BE5827F
:10033B00B4FF0302030F0202ECE582B4FF030203D6
:10034B0002C395835007247F400B0202EC248014D8
:10035B005003020302F582C3ED9AEE9BEF9C401112
:10036B001582C3EA33F9EB33FAEC33FBE433FC804D
:10037B0005E4CCCBCAF9C08275F019C3E99DEA9E9E
:10038B00EB9FEC9400D5F002802D400EE99DF9EA2D
:10039B009EFAEB9FFBEC9400FCC3B3E833F8E582C9
:1003AB0033F582E58333F583C3E933F9EA33FAEBAB
:1003BB0033FBEC33FC80C4B3E4F938FAE43582FB4D
:1003CB00E43583FCD082500405827C8012044E02FB
:0203DB0002E33B
:0D00060075810B120481E582600302000386
:1003DD00AA82AB83A2F73392D1F5826002D2F7AC39
:1003ED00F0E58124F9F8E6FD08E6FE0886F008E65A
:1003FD00A2F73392D5F5836002D2F7AFF0226040B9
:10040D00F82582500274FFF582E824F8501ECCCBFB
:10041D00CAF9E4CC24F85014CBCAF9E4CB24F85033
:10042D000BCAF9E4CA24F85003790022240860109D
:10043D00F8C3EC13FCEB13FBEA13FAE913F9D8F14B
:10044D00227804EC7011E58224F8500AF582E4C993
:10045D00CACBFCD8EF22EC7820058220E713D58299
:10046D000122C3E933F9EA33FAEB33FBEC33FCD861
:08047D00EA15822275820022BB
:00000001FF
