:03000000020006F5
:03005F0002000399
:0300030002006296
:100062007F008F060F8EF005F07401800225E0D527
:10007200F0FBF4F5907D007E00C3ED9488EE9413BE
:1000820050070DBD00F30E80F0BF080040D47F0082
:0200920080D01C
:06003500E478FFF6D8FD9F
:100013007900E94400601B7A00900098780175A08C
:1000230000E493F2A308B8000205A0D9F4DAF2754C
:02003300A0FF2C
:10003B007800E84400600A790175A000E4F309D860
:10004B00FC7800E84400600C7900900001E4F0A318
:04005B00D8FCD9FAFA
:0D000600758107120094E58260030200037B
:04009400758200224F
:00000001FF
