:03000000020006F5
:03005F0002000399
:03000300020138BF
:10006200AC82AD83AEF0FFC004C005C006C00790ED
:10007200000075F07A7444120271AC82AD83AEF066
:10008200FFE58124FCF5817448C0E074E1C0E074AE
:100092008AC0E0743FC0E08C828D838EF0EF120341
:1000A200FDAC82AD83AEF0FFE58124FCF5818C824C
:1000B2008D838EF0EF120375020235AC82AD83AEF2
:1000C200F0FFC004C005C006C00790000075F07ABA
:1000D2007444120271AC82AD83AEF0FFE58124FC60
:1000E200F581C004C005C006C00790000075F07A13
:1000F2007444120271AC82AD83AEF0FFE58124FC40
:10010200F5817448C0E074E1C0E0748AC0E0743FD5
:10011200C0E08C828D838EF0EF1203FDAC82AD8342
:10012200AEF0FFE58124FCF5818C828D838EF0EFA9
:100132001203750202357F0074075FFE8EF005F030
:100142007401800225E0D5F0FBF4F5900F90103A8F
:1001520075F00EE4C007120235D00780DBAC82AD29
:1001620083AEF0FFC004C005C006C0079000007552
:10017200F07A7444120271AC82AD83AEF0FFE58175
:1001820024FCF5817448C0E074E1C0E0748AC0E0E8
:10019200743FC0E08C828D838EF0EF1203FDAC823F
:1001A200AD83AEF0FFE58124FCF5818C828D838ED8
:1001B200F0EF120375020235AC82AD83AEF0FFC0E0
:1001C20004C005C006C00790000075F07A7444129E
:1001D2000271AC82AD83AEF0FFE58124FCF581C0F3
:1001E20004C005C006C00790000075F07A7444127E
:1001F2000271AC82AD83AEF0FFE58124FCF581741F
:1002020048C0E074E1C0E0748AC0E0743FC0E08C92
:10021200828D838EF0EF1203FDAC82AD83AEF0FFD0
:10022200E58124FCF5818C828D838EF0EF120375BB
:10023200020235AC82AD83AEF0FF5389F0438901EF
:100242008C028D0374FFC39AFA74FF9BFB8A8A8B1C
:100252008CC28DD28C308DFDEE4F6012758A007586
:100262008C00C28D308DFD1EBEFF011F80EA22125E
:100272000314BC00030203CFEF60FA30D502B2D1FF
:10028200E583B4FF030203E5E582B4FF030203E55D
:10029200258340072482400B0203CF24831450039A
:1002A2000203E5F582EA8DF0A4A8F0EA8EF0A42814
:1002B200F8E435F0F9EB8DF0A428E935F0F9E433F0
:1002C200CA8FF0A429F9EA35F0FAEBF88EF0A429E6
:1002D200F9EA35F0FAE433FBEC8DF0A429F9EA35BA
:1002E200F0FAE43BFBE88FF0A42AFAEB35F0FBE4EA
:1002F20033CCFD8EF0A42AFAEB35F0FBE43CFCEDA6
:100302008FF0A42BFBEC35F0FC20E7031203420232
:1003120003AEAA82AB83A2F73392D1F5826002D2F6
:10032200F7ACF0E58124F9F8E6FD08E6FE0886F070
:1003320008E6A2F73392D5F5836002D2F7AFF02236
:06003500E478FFF6D8FD9F
:100342007804EC7011E58224F8500AF582E4C9CAF7
:10035200CBFCD8EF22EC7820058220E713D582016E
:1003620022C3E933F9EA33FAEB33FBEC33FCD8EA84
:03037200158222CF
:100013007900E94400601B7A00900507780175A018
:1000230000E493F2A308B8000205A0D9F4DAF2754C
:02003300A0FF2C
:100375007F9E12039C30D1030203CFC3EF958250B9
:100385000974FFF5F0F583F5822279001204C0891E
:10039500828A838BF0EC22AA82AB83A2F73392D1B7
:0903A500F5826002D2F7ACF022EF
:10003B007800E84400600A790175A000E4F309D860
:10004B00FC7800E84400600C7900900001E4F0A318
:04005B00D8FCD9FAFA
:1003AE00B98003EA13B34010EA2401FAE43BFBE4FC
:1003BE003CFC50047C800582BC000EBB000BBA00D6
:1003CE0008E4F5F0F583F58222A2D1E582138CF0D4
:1003DE0092F78B838A8222E4F583F58275F080F49E
:1003EE00A2D11322E4F583F58275F0C0747F221238
:1003FE00031430D502B2D1BF0009BC00030203F2D0
:10040E000203E5BC00030203CFE583B4FF0BE582D4
:10041E00B4FF030203F20203CFE582B4FF0302032B
:10042E00E5C395835007247F400B0203CF2480142D
:10043E0050030203E5F582C3ED9AEE9BEF9C40114B
:10044E001582C3EA33F9EB33FAEC33FBE433FC8069
:10045E0005E4CCCBCAF9C08275F019C3E99DEA9EBA
:10046E00EB9FEC9400D5F002802D400EE99DF9EA49
:10047E009EFAEB9FFBEC9400FCC3B3E833F8E582E5
:10048E0033F582E58333F583C3E933F9EA33FAEBC7
:10049E0033FBEC33FC80C4B3E4F938FAE43582FB69
:1004AE00E43583FCD082500405827C801203420224
:0204BE0003C673
:0D000600758107120503E582600302000307
:1004C0006040F82582500274FFF582E824F8501E3F
:1004D000CCCBCAF9E4CC24F85014CBCAF9E4CB2431
:1004E000F8500BCAF9E4CA24F85003790022240812
:1004F0006010F8C3EC13FCEB13FBEA13FAE913F9F1
:07050000D8F12275820022F0
:00000001FF
