:03000000020006F5
:03005F0002000399
:030003000201BE39
:10006200AC82AD83AEF0FFC004C005C006C00790ED
:10007200000075F07A744412045FAC82AD83AEF076
:10008200FFE58124FCF5817448C0E074E1C0E074AE
:100092008AC0E0743FC0E08C828D838EF0EF12063E
:1000A20061AC82AD83AEF0FFE58124FCF5818C82E8
:1000B2008D838EF0EF120563020423AC82AD83AE12
:1000C200F0FFC004C005C006C00790000075F07ABA
:1000D200744412045FAC82AD83AEF0FFE58124FC70
:1000E200F581C004C005C006C00790000075F07A13
:1000F200744412045FAC82AD83AEF0FFE58124FC50
:10010200F5817448C0E074E1C0E0748AC0E0743FD5
:10011200C0E08C828D838EF0EF120661AC82AD83DB
:10012200AEF0FFE58124FCF5818C828D838EF0EFA9
:1001320012056302042374F0F5B0B5B004758200B1
:1001420022902400E4F5F0120423AFB0BF700280C5
:1001520019BFB0028010BFD0028007BFE0107F013C
:1001620080107F02800C7F0380087F0480047582E8
:10017200002275B00FAEB0BE0702801FBE0B028018
:1001820012BE0D028005BE0E1A801C8F0674042E4C
:10019200FF80148F0674082EFF800C8F06740C2EBD
:1001A200FF800475820022740FB5B0FB902400E436
:1001B200F5F0C007120423D0078F82227F00BF0808
:1001C200005009EF2408F876000F80F29007D9E476
:1001D20093FF8F089007D9E493FF8F09120138E546
:1001E20082FE60497F0075100A8F118E828F83C054
:1001F20007C006120724AC82AD83D006D007EC24D8
:10020200D9F582ED3407F583E493FD8D0875100A64
:100212007511008E828F8312075AAE82AF83EE244D
:10022200D9F582EF3407F583E493FF8F0912030AAD
:0202320080AAA0
:1007D9003F065B4F666D7D077F6F777C395E797168
:0307E9007638401F
:10023400AC82AD83AEF0FFC004C005C006C0079019
:10024400000075F07A744412045FAC82AD83AEF0A2
:10025400FFE58124FCF5817448C0E074E1C0E074DA
:100264008AC0E0743FC0E08C828D838EF0EF12066A
:1002740061AC82AD83AEF0FFE58124FCF5818C8214
:100284008D838EF0EF120563020423AC82AD83AE3E
:10029400F0FFC004C005C006C00790000075F07AE6
:1002A400744412045FAC82AD83AEF0FFE58124FC9C
:1002B400F581C004C005C006C00790000075F07A3F
:1002C400744412045FAC82AD83AEF0FFE58124FC7C
:1002D400F5817448C0E074E1C0E0748AC0E0743F02
:1002E400C0E08C828D838EF0EF120661AC82AD8308
:1002F400AEF0FFE58124FCF5818C828D838EF0EFD6
:100304001205630204237F00BF0800503BEF24085A
:10031400F9E7FE6030D2A7C2A68F057407C39DF526
:10032400F005F07401800225E0D5F0FBF4F580D2ED
:10033400A6C2A78E80900733E4F5F0C00712042309
:10034400D0077580000F80C022AC82AD83AEF0FF71
:10035400C004C005C006C00790000075F07A74445C
:1003640012045FAC82AD83AEF0FFE58124FCF5811D
:100374007448C0E074E1C0E0748AC0E0743FC0E037
:100384008C828D838EF0EF120661AC82AD83AEF069
:10039400FFE58124FCF5818C828D838EF0EF1205BC
:1003A40063020423AC82AD83AEF0FFC004C005C079
:1003B40006C00790000075F07A744412045FAC82A2
:1003C400AD83AEF0FFE58124FCF581C004C005C017
:1003D40006C00790000075F07A744412045FAC8282
:1003E400AD83AEF0FFE58124FCF5817448C0E07470
:1003F400E1C0E0748AC0E0743FC0E08C828D838EDB
:10040400F0EF120661AC82AD83AEF0FFE58124FC0F
:10041400F5818C828D838EF0EF120563020423AC88
:1004240082AD83AEF0FF5389F04389018C028D03C2
:1004340074FFC39AFA74FF9BFB8A8A8B8CC28DD299
:100444008C308DFDEE4F6012758A00758C00C28D64
:10045400308DFD1EBEFF011F80EA22120502BC0082
:1004640003020633EF60FA30D502B2D1E583B4FF5C
:1004740003020649E582B4FF0302064925834007C7
:100484002482400B0206332483145003020649F5E8
:1004940082EA8DF0A4A8F0EA8EF0A428F8E435F0FE
:1004A400F9EB8DF0A428E935F0F9E433CA8FF0A410
:1004B40029F9EA35F0FAEBF88EF0A429F9EA35F0D7
:1004C400FAE433FBEC8DF0A429F9EA35F0FAE43BC5
:1004D400FBE88FF0A42AFAEB35F0FBE433CCFD8E75
:1004E400F0A42AFAEB35F0FBE43CFCED8FF0A42BEE
:1004F400FBEC35F0FC20E703120530020612AA8259
:10050400AB83A2F73392D1F5826002D2F7ACF0E567
:100514008124F9F8E6FD08E6FE0886F008E6A2F76D
:0C0524003392D5F5836002D2F7AFF022CD
:06003500E478FFF6D8FD9F
:100530007804EC7011E58224F8500AF582E4C9CA07
:10054000CBFCD8EF22EC7820058220E713D582017E
:1005500022C3E933F9EA33FAEB33FBEC33FCD8EA94
:03056000158222DF
:100013007900E94400601B7A009007EC780175A031
:1000230000E493F2A308B8000205A0D9F4DAF2754C
:02003300A0FF2C
:100563007F9E12058A30D103020633C3EF95825072
:100573000974FFF5F0F583F5822279001207928959
:10058300828A838BF0EC22AA82AB83A2F73392D1C7
:10059300F5826002D2F7ACF022E510451160467A8D
:1005A30001E51025E0F510E511334012F511E58260
:1005B3009510E583951140030A80E6C3E51113F511
:1005C30011E51013F510C3E5829510F5F0E5839559
:1005D300114005F58385F082C3E51113F511E5108C
:0605E30013F510DAE1221D
:10003B007800E84400600A790175A000E4F309D860
:10004B00FC7800E84400600C7900900001E4F0A318
:04005B00D8FCD9FAFA
:1005E9007A10E4FBFCE58225E0F582E58333F583A7
:1005F900EB33FBEC33FCEB9510F5F0EC9511400671
:10060900FCABF0438201DADD22B98003EA13B3407F
:1006190010EA2401FAE43BFBE43CFC50047C80052D
:1006290082BC000EBB000BBA0008E4F5F0F583F5B7
:100639008222A2D1E582138CF092F78B838A8222DF
:10064900E4F583F58275F080F4A2D11322E4F583F1
:10065900F58275F0C0747F2212050230D502B2D13D
:10066900BF0009BC0003020656020649BC0003028A
:100679000633E583B4FF0BE582B4FF030206560295
:100689000633E582B4FF03020649C3958350072464
:100699007F400B0206332480145003020649F58279
:1006A900C3ED9AEE9BEF9C40111582C3EA33F9EB37
:1006B90033FAEC33FBE433FC8005E4CCCBCAF9C054
:1006C9008275F019C3E99DEA9EEB9FEC9400D5F081
:1006D90002802D400EE99DF9EA9EFAEB9FFBEC940E
:1006E90000FCC3B3E833F8E58233F582E58333F5DB
:1006F90083C3E933F9EA33FAEB33FBEC33FC80C407
:10070900B3E4F938FAE43582FBE43583FCD082504E
:0B0719000405827C8012053002062AD5
:0D0006007581111207D5E582600302000329
:10072400C2D5E58330E70DD2D5E4C39582F582E4E2
:100734009583F583E51130E70BE4C39510F510E4D8
:100744009511F51112059C30D50BE4C39582F58201
:10075400E49583F58322C2D5E58330E70DD2D5E451
:10076400C39582F582E49583F583E51130E70DB2F4
:10077400D5E4C39510F510E49511F5111205E9308F
:10078400D50BE4C39582F582E49583F5832260401A
:10079400F82582500274FFF582E824F8501ECCCB71
:1007A400CAF9E4CC24F85014CBCAF9E4CB24F850A9
:1007B4000BCAF9E4CA24F850037900222408601013
:1007C400F8C3EC13FCEB13FBEA13FAE913F9D8F1C1
:0507D4002275820022E5
:00000001FF
