:03000000020006F5
:03005F0002000399
:030003000200E810
:1000620074F0F5B0B5B004758200229003E8E4F5AF
:10007200F01201A1AFB0BF70028019BFB0028010B0
:10008200BFD0028007BFE0107F0180107F02800C8A
:100092007F0380087F0480047582002275B00FAE52
:1000A200B0BE0702801FBE0B028012BE0D02800589
:1000B200BE0E1A801C8F0674042EFF80148F0674E5
:1000C200082EFF800C8F06740C2EFF8004758200B0
:1000D20022740FB5B0FB9003E8E4F5F0C0071201FB
:1000E200A1D0078F82227F00BF08005009EF2408A9
:1000F200F876000F80F29003F8E493FF8F089003E4
:10010200F8E493FF8F09120062E582FE60497F00E6
:1001120075100A8F118E828F83C007C00612038664
:10012200AC82AD83D006D007EC24F8F582ED34031F
:10013200F583E493FD8D0875100A7511008E828F88
:10014200831203BCAE82AF83EE24F8F582EF340350
:0C015200F583E493FF8F0912015E80AA80
:1003F8003F065B4F666D7D077F6F777C395E79714D
:0304080076384003
:10015E007F00BF0800503BEF2408F9E7FE6030D265
:10016E00A7C2A68F057407C39DF5F005F074018034
:10017E000225E0D5F0FBF4F580D2A6C2A78E8090C2
:10018E0003E8E4F5F0C0071201A1D0077580000F57
:10019E0080C022AC82AD83AEF0FFC2A97510FF7590
:1001AE0011FFE4F512F5138C828D838EF0EFC007EC
:1001BE00C006C005C0041202ABA882A983D004D029
:1001CE0005D006D0077510FF7511FFE4F512F51373
:1001DE008C828D838EF0EFC001C000120228AC829B
:1001EE00AD83D000D00174FFC39CFC74FF9DFD75E0
:1001FE0089018C8A8D8CC28DD28C308DFD880689BA
:10020E0007EE4F6012758A00758C00C28D308DFD21
:10021E001EBEFF011F80EAD2A922F9E51045114545
:10022E0012451360777800C308E51320E73BE5100D
:10023E0025E0F510E51133F511E51233F512E5134E
:10024E0033F513E5829510E5839511E5F09512E9E6
:10025E00951350D4C3E51313F513E51213F512E5F8
:10026E001113F511E51013F510E5829510FCE583D9
:10027E009511FDE5F09512FEE995134007F98EF004
:10028E008D838C82C3E51313F513E51213F512E576
:10029E001113F511E51013F510D8CEE922FB7A20D3
:1002AE00E4FCFDFEFFE5822582F582E58333F583CE
:1002BE00E5F033F5F0EB33FB4017DAE98042E582E7
:1002CE002582F582E58333F583E5F033F5F0EB33E4
:1002DE00FBEC33FCED33FDEE33FEEF33FFEC95100C
:1002EE00ED9511EE9512EF95134013EC9510FCED74
:1002FE009511FDEE9512FEEF9513FF438201DABEC6
:02030E00EB22E0
:06003500E478FFF6D8FD9F
:100013007900E94400601B7A0090040B780175A015
:1000230000E493F2A308B8000205A0D9F4DAF2754C
:02003300A0FF2C
:10031000E510451160467A01E51025E0F510E5117C
:10032000334012F511E5829510E583951140030ADB
:1003300080E6C3E51113F511E51013F510C3E5824E
:100340009510F5F0E58395114005F58385F082C39E
:0D035000E51113F511E51013F510DAE122A7
:10003B007800E84400600A790175A000E4F309D860
:10004B00FC7800E84400600C7900900001E4F0A318
:04005B00D8FCD9FAFA
:10035D007A10E4FBFCE58225E0F582E58333F58335
:10036D00EB33FBEC33FCEB9510F5F0EC95114006FF
:09037D00FCABF0438201DADD2241
:0D0006007581131203F4E58260030200030C
:10038600C2D5E58330E70DD2D5E4C39582F582E484
:100396009583F583E51130E70BE4C39510F510E47A
:1003A6009511F51112031030D50BE4C39582F58231
:1003B600E49583F58322C2D5E58330E70DD2D5E4F3
:1003C600C39582F582E49583F583E51130E70DB296
:1003D600D5E4C39510F510E49511F51112035D30BF
:1003E600D50BE4C39582F582E49583F58322758265
:0203F6000022E3
:00000001FF
