:03000000020006F5
:03005F0002000399
:03000300020224D2
:10006200AC82AD83AEF0FFC004C005C006C00790ED
:10007200000075F07A7444120359AC82AD83AEF07D
:10008200FFE58124FCF5817448C0E074E1C0E074AE
:100092008AC0E0743FC0E08C828D838EF0EF120440
:1000A200E5AC82AD83AEF0FFE58124FCF5818C8264
:1000B2008D838EF0EF12045D02031DAC82AD83AE20
:1000C200F0FFC004C005C006C00790000075F07ABA
:1000D2007444120359AC82AD83AEF0FFE58124FC77
:1000E200F581C004C005C006C00790000075F07A13
:1000F2007444120359AC82AD83AEF0FFE58124FC57
:10010200F5817448C0E074E1C0E0748AC0E0743FD5
:10011200C0E08C828D838EF0EF1204E5AC82AD8359
:10012200AEF0FFE58124FCF5818C828D838EF0EFA9
:1001320012045D02031DAF82C2B5C2B67E00BE08C4
:1001420000502A8EF005F07C017D008006EC2CFC2C
:10015200ED33FDD5F0F78F027B00EA5204EB520536
:10016200EC4D24FF92B4D2B5C2B50E80D1D2B6C244
:10017200B622AF82C2B5D2B6C2B67E00BE08005069
:100182002A8EF005F07C017D008006EC2CFCED331C
:10019200FDD5F0F78F027B00EA5204EB5205EC4DDD
:1001A20024FF92B4D2B5C2B50E80D17F00BF080041
:1001B200502A8FF005F07D017E008006ED2DFDEEC8
:1001C20033FED5F0F7AB107C00EB5205EC5206ED96
:1001D2004E24FF92B4D2B5C2B50F80D1D2B6C2B608
:1001E200227F00BF08005039EF2408F9E7FE602E95
:1001F2008FF005F07C80E4FD3392D28008A2D2ED2C
:1002020013FDEC13FCD5F0F5ECF4F5828E10C0076B
:10021200120174900399E4F5F012031DD0070F80C8
:10022200C2227F00BF08005017EF2408F98F068E04
:10023200F005F07401800225E0D5F0FBF70F80E4B1
:100242001201E380FBAC82AD83AEF0FFC004C005B7
:10025200C006C00790000075F07A7444120359ACCE
:1002620082AD83AEF0FFE58124FCF5817448C0E0E5
:1002720074E1C0E0748AC0E0743FC0E08C828D8378
:100282008EF0EF1204E5AC82AD83AEF0FFE581247F
:10029200FCF5818C828D838EF0EF12045D02031DCA
:1002A200AC82AD83AEF0FFC004C005C006C00790AB
:1002B200000075F07A7444120359AC82AD83AEF03B
:1002C200FFE58124FCF581C004C005C006C007908B
:1002D200000075F07A7444120359AC82AD83AEF01B
:1002E200FFE58124FCF5817448C0E074E1C0E0744C
:1002F2008AC0E0743FC0E08C828D838EF0EF1204DE
:10030200E5AC82AD83AEF0FFE58124FCF5818C8201
:100312008D838EF0EF12045D02031DAC82AD83AEBD
:10032200F0FF5389F04389018C028D0374FFC39A55
:10033200FA74FF9BFB8A8A8B8CC28DD28C308DFD26
:10034200EE4F6012758A00758C00C28D308DFD1ED5
:10035200BEFF011F80EA221203FCBC00030204B7A5
:10036200EF60FA30D502B2D1E583B4FF030204CDC7
:10037200E582B4FF030204CD258340072482400BAB
:100382000204B724831450030204CDF582EA8DF0EF
:10039200A4A8F0EA8EF0A428F8E435F0F9EB8DF089
:1003A200A428E935F0F9E433CA8FF0A429F9EA3533
:1003B200F0FAEBF88EF0A429F9EA35F0FAE433FB0F
:1003C200EC8DF0A429F9EA35F0FAE43BFBE88FF072
:1003D200A42AFAEB35F0FBE433CCFD8EF0A42AFA22
:1003E200EB35F0FBE43CFCED8FF0A42BFBEC35F09D
:1003F200FC20E70312042A020496AA82AB83A2F726
:100402003392D1F5826002D2F7ACF0E58124F9F89B
:10041200E6FD08E6FE0886F008E6A2F73392D5F577
:08042200836002D2F7AFF02263
:06003500E478FFF6D8FD9F
:10042A007804EC7011E58224F8500AF582E4C9CA0E
:10043A00CBFCD8EF22EC7820058220E713D5820185
:10044A0022C3E933F9EA33FAEB33FBEC33FCD8EA9B
:03045A00158222E6
:100013007900E94400601B7A009005EF780175A030
:1000230000E493F2A308B8000205A0D9F4DAF2754C
:02003300A0FF2C
:10045D007F9E12048430D1030204B7C3EF958250FE
:10046D000974FFF5F0F583F5822279001205A8894C
:10047D00828A838BF0EC22AA82AB83A2F73392D1CE
:09048D00F5826002D2F7ACF02206
:10003B007800E84400600A790175A000E4F309D860
:10004B00FC7800E84400600C7900900001E4F0A318
:04005B00D8FCD9FAFA
:10049600B98003EA13B34010EA2401FAE43BFBE413
:1004A6003CFC50047C800582BC000EBB000BBA00ED
:1004B60008E4F5F0F583F58222A2D1E582138CF0EB
:1004C60092F78B838A8222E4F583F58275F080F4B5
:1004D600A2D11322E4F583F58275F0C0747F22124F
:1004E60003FC30D502B2D1BF0009BC00030204DA16
:1004F6000204CDBC00030204B7E583B4FF0BE5821A
:10050600B4FF030204DA0204B7E582B4FF0302046F
:10051600CDC395835007247F400B0204B724801473
:1005260050030204CDF582C3ED9AEE9BEF9C401179
:100536001582C3EA33F9EB33FAEC33FBE433FC8080
:1005460005E4CCCBCAF9C08275F019C3E99DEA9ED1
:10055600EB9FEC9400D5F002802D400EE99DF9EA60
:100566009EFAEB9FFBEC9400FCC3B3E833F8E582FC
:1005760033F582E58333F583C3E933F9EA33FAEBDE
:1005860033FBEC33FC80C4B3E4F938FAE43582FB80
:10059600E43583FCD082500405827C8012042A0252
:0205A60004AEA1
:0D0006007581101205EBE582600302000316
:1005A8006040F82582500274FFF582E824F8501E56
:1005B800CCCBCAF9E4CC24F85014CBCAF9E4CB2448
:1005C800F8500BCAF9E4CA24F85003790022240829
:1005D8006010F8C3EC13FCEB13FBEA13FAE913F908
:0705E800D8F1227582002208
:00000001FF
