:03000000020006F5
:03005F0002000399
:0300030002014CAB
:10006200AF82C2B5C2B67E00BE0800502A8EF0052D
:10007200F07C017D008006EC2CFCED33FDD5F0F721
:100082008F027B00EA5204EB5205EC4D24FF92B43E
:10009200D2B5C2B50E80D1D2B6C2B622AF82C2B537
:1000A200C2B67E00BE0800502A8EF005F07C017DAB
:1000B200008006EC2CFCED33FDD5F0F78F027B00BF
:1000C200EA5204EB5205EC4D24FF92B4D2B5C2B50C
:1000D2000E80D17F00BF0800502A8FF005F07D010D
:1000E2007E008006ED2DFDEE33FED5F0F7AB107CE1
:1000F20000EB5205EC5206ED4E24FF92B4D2B5C28B
:10010200B50F80D1D2B6C2B6227F00BF08005039E7
:10011200EF2408F9E7FE602E8FF005F07C80E4FD05
:100122003392D28008A2D2ED13FDEC13FCD5F0F588
:10013200ECF4F5828E10C00712009E900064E4F584
:10014200F012016FD0070F80C2227F00BF0800505B
:1001520017EF2408F98F068EF005F074018002254E
:10016200E0D5F0FBF70F80E412010B80FBAC82AD0F
:1001720083AEF0FFC2A97510FF7511FFE4F512F509
:10018200138C828D838EF0EFC007C006C005C004B9
:100192001201F6A882A983D004D005D006D0077434
:1001A200FFC398F874FF99F97510FF7511FFE4F514
:1001B20012F5138C828D838EF0EFC001C000120203
:1001C20079AC82AD83D000D001758901888A898C8F
:1001D200C28DD28C308DFD8C068D07EE4F6012756C
:1001E2008A00758C00C28D308DFD1EBEFF011F80FE
:1001F200EAD2A922F9E51045114512451360777834
:1002020000C308E51320E73BE51025E0F510E511F2
:1002120033F511E51233F512E51333F513E5829543
:1002220010E5839511E5F09512E9951350D4C3E5D5
:100232001313F513E51213F512E51113F511E51079
:1002420013F510E5829510FCE5839511FDE5F09517
:1002520012FEE995134007F98EF08D838C82C3E577
:100262001313F513E51213F512E51113F511E51049
:1002720013F510D8CEE922FB7A20E4FCFDFEFFE55F
:10028200822582F582E58333F583E5F033F5F0EBE1
:1002920033FB4017DAE98042E5822582F582E58365
:1002A20033F583E5F033F5F0EB33FBEC33FCED3360
:1002B200FDEE33FEEF33FFEC9510ED9511EE951246
:1002C200EF95134013EC9510FCED9511FDEE951290
:0C02D200FEEF9513FF438201DABEEB2221
:06003500E478FFF6D8FD9F
:100013007900E94400601B7A009002E2780175A040
:1000230000E493F2A308B8000205A0D9F4DAF2754C
:02003300A0FF2C
:10003B007800E84400600A790175A000E4F309D860
:10004B00FC7800E84400600C7900900001E4F0A318
:04005B00D8FCD9FAFA
:0D0006007581131202DEE582600302000323
:0402DE007582002203
:00000001FF
