:03000000020006F5
:03005F0002000399
:0300030002006296
:100062007590FE90000075F07A74441200807590CD
:10007200FF90000075F07A744412008080E2AC8236
:10008200AD83AEF0FFC2A974E4C0E07438C0E0747E
:100092008EC0E0743AC0E08C828D838EF0EF120243
:1000A200AFAC82AD83AEF0FFE58124FCF5818C829A
:1000B2008D838EF0EF120227AC82AD83AEF0FF7516
:1000C20008FF7509FFE4F50AF50B8C828D838EF02B
:1000D200EFC007C006C005C00412013FA882A98371
:1000E200D004D005D006D00774FFC398F874FF99E6
:1000F200F97508FF7509FFE4F50AF50B8C828D830B
:100102008EF0EFC001C0001201C2AC82AD83D000FC
:10011200D001758901888A898CC28DD28C308DFD7F
:100122008C068D07EE4F6012758A00758C00C28DA9
:10013200308DFD1EBEFF011F80EAD2A922F9E5081B
:100142004509450A450B60777800C308E50B20E7AF
:100152003BE50825E0F508E50933F509E50A33F53D
:100162000AE50B33F50BE5829508E5839509E5F081
:10017200950AE9950B50D4C3E50B13F50BE50A1369
:10018200F50AE50913F509E50813F508E58295086E
:10019200FCE5839509FDE5F0950AFEE9950B40071C
:1001A200F98EF08D838C82C3E50B13F50BE50A13F0
:1001B200F50AE50913F509E50813F508D8CEE92291
:1001C200FB7A20E4FCFDFEFFE5822582F582E583D1
:1001D20033F583E5F033F5F0EB33FB4017DAE980D2
:1001E20042E5822582F582E58333F583E5F033F536
:1001F200F0EB33FBEC33FCED33FDEE33FEEF33FF7C
:10020200EC9508ED9509EE950AEF950B4013EC95E8
:1002120008FCED9509FDEE950AFEEF950BFF438272
:0502220001DABEEB2231
:06003500E478FFF6D8FD9F
:100013007900E94400601B7A0090041A780175A006
:1000230000E493F2A308B8000205A0D9F4DAF2754C
:02003300A0FF2C
:100227007F9E12024E30D103020281C3EF958250A6
:100237000974FFF5F0F583F5822279001203A0898E
:10024700828A838BF0EC22AA82AB83A2F73392D106
:09025700F5826002D2F7ACF0223E
:10003B007800E84400600A790175A000E4F309D860
:10004B00FC7800E84400600C7900900001E4F0A318
:04005B00D8FCD9FAFA
:10026000B98003EA13B34010EA2401FAE43BFBE44B
:100270003CFC50047C800582BC000EBB000BBA0025
:1002800008E4F5F0F583F58222A2D1E582138CF023
:1002900092F78B838A8222E4F583F58275F080F4ED
:1002A000A2D11322E4F583F58275F0C0747F221287
:1002B000037230D502B2D1BF0009BC00030202A410
:1002C000020297BC0003020281E583B4FF0BE582C2
:1002D000B4FF030202A4020281E582B4FF0302021A
:1002E00097C395835007247F400B0202812480141A
:1002F0005003020297F582C3ED9AEE9BEF9C4011EA
:100300001582C3EA33F9EB33FAEC33FBE433FC80B8
:1003100005E4CCCBCAF9C08275F019C3E99DEA9E09
:10032000EB9FEC9400D5F002802D400EE99DF9EA98
:100330009EFAEB9FFBEC9400FCC3B3E833F8E58234
:1003400033F582E58333F583C3E933F9EA33FAEB16
:1003500033FBEC33FC80C4B3E4F938FAE43582FBB8
:10036000E43583FCD082500405827C801203E302D2
:02037000027811
:0D00060075810B120416E5826003020003F1
:10037200AA82AB83A2F73392D1F5826002D2F7ACA4
:10038200F0E58124F9F8E6FD08E6FE0886F008E6C5
:10039200A2F73392D5F5836002D2F7AFF022604024
:1003A200F82582500274FFF582E824F8501ECCCB67
:1003B200CAF9E4CC24F85014CBCAF9E4CB24F8509F
:1003C2000BCAF9E4CA24F850037900222408601009
:1003D200F8C3EC13FCEB13FBEA13FAE913F9D8F1B7
:1003E200227804EC7011E58224F8500AF582E4C9FF
:1003F200CACBFCD8EF22EC7820058220E713D58205
:100402000122C3E933F9EA33FAEB33FBEC33FCD8CC
:08041200EA1582227582002226
:00000001FF
