:03000000020006F5
:03005F0002000399
:03000300020138BF
:10006200AC82AD83AEF0FFC004C005C006C00790ED
:10007200000075F07A7444120264AC82AD83AEF073
:10008200FFE58124FCF5817448C0E074E1C0E074AE
:100092008AC0E0743FC0E08C828D838EF0EF120341
:1000A200F0AC82AD83AEF0FFE58124FCF5818C8259
:1000B2008D838EF0EF120368020228AC82AD83AE0C
:1000C200F0FFC004C005C006C00790000075F07ABA
:1000D2007444120264AC82AD83AEF0FFE58124FC6D
:1000E200F581C004C005C006C00790000075F07A13
:1000F2007444120264AC82AD83AEF0FFE58124FC4D
:10010200F5817448C0E074E1C0E0748AC0E0743FD5
:10011200C0E08C828D838EF0EF1203F0AC82AD834F
:10012200AEF0FFE58124FCF5818C828D838EF0EFA9
:10013200120368020228C29090103A75F00EE4127F
:100142000228D29090103A75F00EE412022880E64E
:10015200AC82AD83AEF0FFC004C005C006C00790FC
:10016200000075F07A7444120264AC82AD83AEF082
:10017200FFE58124FCF5817448C0E074E1C0E074BD
:100182008AC0E0743FC0E08C828D838EF0EF120350
:10019200F0AC82AD83AEF0FFE58124FCF5818C8268
:1001A2008D838EF0EF120368020228AC82AD83AE1B
:1001B200F0FFC004C005C006C00790000075F07AC9
:1001C2007444120264AC82AD83AEF0FFE58124FC7C
:1001D200F581C004C005C006C00790000075F07A22
:1001E2007444120264AC82AD83AEF0FFE58124FC5C
:1001F200F5817448C0E074E1C0E0748AC0E0743FE5
:10020200C0E08C828D838EF0EF1203F0AC82AD835E
:10021200AEF0FFE58124FCF5818C828D838EF0EFB8
:10022200120368020228AC82AD83AEF0FF5389F05C
:100232004389018C028D0374FFC39AFA74FF9BFBFE
:100242008A8A8B8CC28DD28C308DFDEE4F601275F6
:100252008A00758C00C28D308DFD1EBEFF011F808D
:10026200EA22120307BC00030203C2EF60FA30D590
:1002720002B2D1E583B4FF030203D8E582B4FF03DF
:100282000203D8258340072482400B0203C2248341
:100292001450030203D8F582EA8DF0A4A8F0EA8E86
:1002A200F0A428F8E435F0F9EB8DF0A428E935F054
:1002B200F9E433CA8FF0A429F9EA35F0FAEBF88EA3
:1002C200F0A429F9EA35F0FAE433FBEC8DF0A42925
:1002D200F9EA35F0FAE43BFBE88FF0A42AFAEB35B1
:1002E200F0FBE433CCFD8EF0A42AFAEB35F0FBE40C
:1002F2003CFCED8FF0A42BFBEC35F0FC20E7031265
:1003020003350203A1AA82AB83A2F73392D1F5820D
:100312006002D2F7ACF0E58124F9F8E6FD08E6FECA
:100322000886F008E6A2F73392D5F5836002D2F789
:03033200AFF02207
:06003500E478FFF6D8FD9F
:100335007804EC7011E58224F8500AF582E4C9CA04
:10034500CBFCD8EF22EC7820058220E713D582017B
:1003550022C3E933F9EA33FAEB33FBEC33FCD8EA91
:03036500158222DC
:100013007900E94400601B7A009004FA780175A026
:1000230000E493F2A308B8000205A0D9F4DAF2754C
:02003300A0FF2C
:100368007F9E12038F30D1030203C2C3EF958250E0
:100378000974FFF5F0F583F5822279001204B38938
:10038800828A838BF0EC22AA82AB83A2F73392D1C4
:09039800F5826002D2F7ACF022FC
:10003B007800E84400600A790175A000E4F309D860
:10004B00FC7800E84400600C7900900001E4F0A318
:04005B00D8FCD9FAFA
:1003A100B98003EA13B34010EA2401FAE43BFBE409
:1003B1003CFC50047C800582BC000EBB000BBA00E3
:1003C10008E4F5F0F583F58222A2D1E582138CF0E1
:1003D10092F78B838A8222E4F583F58275F080F4AB
:1003E100A2D11322E4F583F58275F0C0747F221245
:1003F100030730D502B2D1BF0009BC00030203E5F7
:100401000203D8BC00030203C2E583B4FF0BE582FB
:10041100B4FF030203E50203C2E582B4FF03020352
:10042100D8C395835007247F400B0203C224801454
:1004310050030203D8F582C3ED9AEE9BEF9C401165
:100441001582C3EA33F9EB33FAEC33FBE433FC8076
:1004510005E4CCCBCAF9C08275F019C3E99DEA9EC7
:10046100EB9FEC9400D5F002802D400EE99DF9EA56
:100471009EFAEB9FFBEC9400FCC3B3E833F8E582F2
:1004810033F582E58333F583C3E933F9EA33FAEBD4
:1004910033FBEC33FC80C4B3E4F938FAE43582FB76
:1004A100E43583FCD082500405827C80120335023E
:0204B10003B98D
:0D0006007581071204F6E582600302000315
:1004B3006040F82582500274FFF582E824F8501E4C
:1004C300CCCBCAF9E4CC24F85014CBCAF9E4CB243E
:1004D300F8500BCAF9E4CA24F8500379002224081F
:1004E3006010F8C3EC13FCEB13FBEA13FAE913F9FE
:0704F300D8F12275820022FE
:00000001FF
