:03000000020006F5
:03005F0002000399
:030003000200D127
:10006200AF82C2B5D2B6C2B67E00BE0800502A8E9A
:10007200F005F07C017D008006EC2CFCED33FDD513
:10008200F0F78F027B00EA5204EB5205EC4D24FF9D
:1000920092B4D2B5C2B50E80D17F00BF0800502AFB
:1000A2008FF005F07D017E008006ED2DFDEE33FE22
:1000B200D5F0F7AB087C00EB5205EC5206ED4E246E
:1000C200FF92B4D2B5C2B50F80D1D2B6C2B62275F4
:0A00D200080175827F12006280FEB3
:06003500E478FFF6D8FD9F
:100013007900E94400601B7A009000E0780175A044
:1000230000E493F2A308B8000205A0D9F4DAF2754C
:02003300A0FF2C
:10003B007800E84400600A790175A000E4F309D860
:10004B00FC7800E84400600C7900900001E4F0A318
:04005B00D8FCD9FAFA
:0D0006007581081200DCE582600302000332
:0400DC007582002207
:00000001FF
