:0400000002001132B7
:03000B00020143AC
:03006A0002000E83
:03000E00020147A5
:10006D00AC82AD83AEF0FFC004C005C006C00790E2
:10007D00000075F07A74441202AAAC82AD83AEF022
:10008D00FFE58124FCF5817448C0E074E1C0E074A3
:10009D008AC0E0743FC0E08C828D838EF0EF120435
:1000AD0036AC82AD83AEF0FFE58124FCF5818C8208
:1000BD008D838EF0EF1203AE02026EAC82AD83AE75
:1000CD00F0FFC004C005C006C00790000075F07AAF
:1000DD0074441202AAAC82AD83AEF0FFE58124FC1C
:1000ED00F581C004C005C006C00790000075F07A08
:1000FD0074441202AAAC82AD83AEF0FFE58124FCFC
:10010D00F5817448C0E074E1C0E0748AC0E0743FCA
:10011D00C0E08C828D838EF0EF120436AC82AD83FD
:10012D00AEF0FFE58124FCF5818C828D838EF0EF9E
:10013D001203AE02026E75800032C2AFC2A97F00FB
:10014D00BF080050F9D2A7C2A68F067407C39EF54B
:10015D00F005F07401800225E0D5F0FBF4F580D2B6
:10016D00A6C2A70EEE3395E0FDEE2440F582ED34E8
:10017D0005F583E493F58090103A75F00EE4C00711
:0B018D0012026ED0077580000F80B5D5
:100540003F065B4F666D7D077F6F777C395E797103
:0405500076384000B9
:10019800AC82AD83AEF0FFC004C005C006C00790B6
:1001A800000075F07A74441202AAAC82AD83AEF0F6
:1001B800FFE58124FCF5817448C0E074E1C0E07477
:1001C8008AC0E0743FC0E08C828D838EF0EF120409
:1001D80036AC82AD83AEF0FFE58124FCF5818C82DC
:1001E8008D838EF0EF1203AE02026EAC82AD83AE49
:1001F800F0FFC004C005C006C00790000075F07A83
:1002080074441202AAAC82AD83AEF0FFE58124FCEF
:10021800F581C004C005C006C00790000075F07ADB
:1002280074441202AAAC82AD83AEF0FFE58124FCCF
:10023800F5817448C0E074E1C0E0748AC0E0743F9E
:10024800C0E08C828D838EF0EF120436AC82AD83D1
:10025800AEF0FFE58124FCF5818C828D838EF0EF72
:100268001203AE02026EAC82AD83AEF0FF5389F08A
:100278004389018C028D0374FFC39AFA74FF9BFBB8
:100288008A8A8B8CC28DD28C308DFDEE4F601275B0
:100298008A00758C00C28D308DFD1EBEFF011F8047
:1002A800EA2212034DBC0003020408EF60FA30D5BD
:1002B80002B2D1E583B4FF0302041EE582B4FF0352
:1002C80002041E258340072482400B02040824836D
:1002D80014500302041EF582EA8DF0A4A8F0EA8EF9
:1002E800F0A428F8E435F0F9EB8DF0A428E935F00E
:1002F800F9E433CA8FF0A429F9EA35F0FAEBF88E5D
:10030800F0A429F9EA35F0FAE433FBEC8DF0A429DE
:10031800F9EA35F0FAE43BFBE88FF0A42AFAEB356A
:10032800F0FBE433CCFD8EF0A42AFAEB35F0FBE4C5
:100338003CFCED8FF0A42BFBEC35F0FC20E703121E
:10034800037B0203E7AA82AB83A2F73392D1F5823B
:100358006002D2F7ACF0E58124F9F8E6FD08E6FE84
:100368000886F008E6A2F73392D5F5836002D2F743
:03037800AFF022C1
:06004000E478FFF6D8FD94
:10037B007804EC7011E58224F8500AF582E4C9CABE
:10038B00CBFCD8EF22EC7820058220E713D5820135
:10039B0022C3E933F9EA33FAEB33FBEC33FCD8EA4B
:0303AB0015822296
:10001E007900E94400601B7A00900554780175A0C0
:10002E0000E493F2A308B8000205A0D9F4DAF27541
:02003E00A0FF21
:1003AE007F9E1203D530D103020408C3EF9582500D
:1003BE000974FFF5F0F583F5822279001204F989AC
:1003CE00828A838BF0EC22AA82AB83A2F73392D17E
:0903DE00F5826002D2F7ACF022B6
:100046007800E84400600A790175A000E4F309D855
:10005600FC7800E84400600C7900900001E4F0A30D
:04006600D8FCD9FAEF
:1003E700B98003EA13B34010EA2401FAE43BFBE4C3
:1003F7003CFC50047C800582BC000EBB000BBA009D
:1004070008E4F5F0F583F58222A2D1E582138CF09A
:1004170092F78B838A8222E4F583F58275F080F464
:10042700A2D11322E4F583F58275F0C0747F2212FE
:10043700034D30D502B2D1BF0009BC000302042B23
:1004470002041EBC0003020408E583B4FF0BE58227
:10045700B4FF0302042B020408E582B4FF0302047D
:100467001EC395835007247F400B02040824801481
:10047700500302041EF582C3ED9AEE9BEF9C4011D8
:100487001582C3EA33F9EB33FAEC33FBE433FC8030
:1004970005E4CCCBCAF9C08275F019C3E99DEA9E81
:1004A700EB9FEC9400D5F002802D400EE99DF9EA10
:1004B7009EFAEB9FFBEC9400FCC3B3E833F8E582AC
:1004C70033F582E58333F583C3E933F9EA33FAEB8E
:1004D70033FBEC33FC80C4B3E4F938FAE43582FB30
:1004E700E43583FCD082500405827C8012037B02B2
:0204F70003FF01
:0D00110075810712053CE582600302000EB8
:1004F9006040F82582500274FFF582E824F8501E06
:10050900CCCBCAF9E4CC24F85014CBCAF9E4CB24F7
:10051900F8500BCAF9E4CA24F850037900222408D8
:100529006010F8C3EC13FCEB13FBEA13FAE913F9B7
:07053900D8F12275820022B7
:00000001FF
